:100000000C9447010C9478010C9478010C947801BD
:100010000C9478010C9478010C9478010C9478017C
:100020000C9478010C9478010C9478010C9478016C
:100030000C9478010C9478010C9478010C9478015C
:100040000C9478010C9478010C9478010C9478014C
:100050000C9478010C9478010C9478010C943B0476
:100060000C9478010C94AF040C9485040C947801E2
:100070000C9478010C9478010C9478010C9478011C
:100080000C9478010C9478010C9478010C9478010C
:100090000C9478010C9478010C9478010C947801FC
:1000A0000C9478010C9478010C9478010C947801EC
:1000B0000C9478010C9478010C9478010C947801DC
:1000C0000C9478010C9478010C9478010C947801CC
:1000D0000C9478010C9478010C9478010C947801BC
:1000E0000C947801C001C301B201B601BC01FA0150
:1000F000C701CB01D101D501D901DF01E301E7013E
:10010000FA01ED01F101F5010C94A3020C94F10147
:100110000C94C0010C94B2010C94F5010C94E30111
:100120000C94CB010C94D8060C94C7010C947A0162
:100130000C94DF010C94D9010C94C3010C94D501EB
:100140000C94B7020C94D1010C94ED010C94BC01F9
:100150000C94FC020C94B6010C9494020C94FA01D9
:100160000C9443030C94C5020C94E7010000210099
:10017000240027002A002D00300033000101000078
:10018000040107010A0100002200250028002B00BD
:100190002E003100340002010000050108010B01AE
:1001A000000020002300260029002C002F00320030
:1001B0000001000003010601090105050505070509
:1001C00008080808020202020A0A080804040404D3
:1001D00001010101010101010303030303030303FF
:1001E000040707070C0C0C0C0C0C0C0C020202028E
:1001F00006060606060606060B0B0B0B0B0B0B0B77
:100200000102102020080810204010204080020128
:10021000020108040201010204081020408080400D
:10022000201008040201800402018040201008040C
:1002300002010804020101020408102040800102AA
:1002400004081020408000000A0B02090C0D0E0863
:10025000070304010000000000000000000000008F
:10026000000000000000000000000000000000008E
:10027000000012111000000000000000000000004B
:10028000000000000000000000000000D80611245B
:100290001FBECFEFD1E2DEBFCDBF00E00CBF12E04A
:1002A000A0E0B2E0E8E7FEE000E00BBF02C007908C
:1002B0000D92A632B107D9F722E0A6E2B2E001C062
:1002C0001D92A63DB207E1F711E0C7E4D1E000E0DE
:1002D00006C021970109802FFE010E941907C6342C
:1002E000D10780E00807A9F70E94E5040C943A07BB
:1002F0000C940000CF92DF92EF92FF920F931F9326
:10030000CF93DF936C017A018B01C0E0D0E0CE1572
:10031000DF0589F0D8016D918D01D601ED91FC9139
:100320000190F081E02DC6011995892B11F47E0111
:1003300002C02196ECCFC701DF91CF911F910F91A1
:10034000FF90EF90DF90CF90089590E0FC013197FF
:10035000E231F10508F04EC08827EE58FF4F8F4F6D
:100360000C941907809180008F7703C080918000E2
:100370008F7D80938000089580918000877FF9CFE2
:1003800084B58F7702C084B58F7D84BD0895809138
:10039000B0008F7703C08091B0008F7D8093B00054
:1003A0000895809190008F7707C0809190008F7D95
:1003B00003C080919000877F809390000895809182
:1003C000A0008F7707C08091A0008F7D03C080912F
:1003D000A000877F8093A0000895809120018F77EF
:1003E00007C0809120018F7D03C080912001877F0D
:1003F000809320010895CF93DF93282F30E0F901F7
:10040000EA5BFD4F8491F901E050FE4FD491F90170
:10041000E654FE4FC491CC2391F081110E94A501B6
:10042000EC2FF0E0EE0FFF1FE056FE4FA591B491C8
:10043000EC91ED2381E090E021F480E002C080E0C7
:1004400090E0DF91CF9108951F93CF93DF93282FF2
:1004500030E0F901EA5BFD4F8491F901E050FE4F75
:10046000D491F901E654FE4FC491CC23C9F0162F64
:1004700081110E94A501EC2FF0E0EE0FFF1FEA575B
:10048000FE4FA591B4918FB7F894111105C09C91BE
:10049000ED2FE095E92302C0EC91ED2BEC938FBF9B
:1004A000DF91CF911F910895CF93DF9390E0FC01EE
:1004B000E050FE4F2491FC01E654FE4F84918823C6
:1004C00061F190E0880F991FFC01E459FE4FC5913E
:1004D000D491FC01EA57FE4FA591B491611109C076
:1004E0009FB7F8948881209582238883EC912E23EE
:1004F0000BC0623061F49FB7F8943881822F8095E9
:1005000083238883EC912E2B2C939FBF06C08FB73B
:10051000F894E8812E2B28838FBFDF91CF91089527
:10052000089580E090E00895FC01538D448D252FBF
:1005300030E0842F90E0821B930B541710F0CF967D
:10054000089501970895FC01918D828D981761F0AF
:10055000828DDF01A80FB11D5D968C91928D9F5FFA
:100560009F73928F90E008958FEF9FEF0895FC01A5
:10057000918D828D981731F0828DE80FF11D858D58
:1005800090E008958FEF9FEF0895FC01918D228DEB
:10059000892F90E0805C9F4F821B91098F73992770
:1005A000089586E292E00E94C50221E0892B09F4B9
:1005B00020E0822F0895FC01848DDF01A80FB11D7A
:1005C000A35ABF4F2C91848D90E001968F73992789
:1005D000848FA689B7892C93A089B1898C91806476
:1005E0008C93938D848D981306C00288F389E02D37
:1005F00080818F7D80830895EF92FF920F931F93E8
:10060000CF93DF93EC0181E0888F9B8D8C8D9813C5
:1006100005C0E889F989808185FD24C0F62E0B8DFF
:1006200010E00F5F1F4F0F731127E02E8C8DE81223
:100630000CC00FB607FCFACFE889F989808185FFE5
:10064000F5CFCE010E94DB02F1CF8B8DFE01E80FCA
:10065000F11DE35AFF4FF0820B8FEA89FB898081FD
:10066000806207C0EE89FF896083E889F98980810B
:100670008064808381E090E0DF91CF911F910F91A2
:10068000FF90EF900895CF93DF93EC01888D88233E
:10069000C9F0EA89FB89808185FD05C0A889B989EF
:1006A0008C9186FD0FC00FB607FCF5CF808185FFCA
:1006B000F2CFA889B9898C9185FFEDCFCE010E9438
:1006C000DB02E7CFDF91CF91089580E090E0892BA6
:1006D00021F00E94D102811125C080E090E0892B99
:1006E00041F080E090E0892B21F00E940000811110
:1006F0001CC080E090E0892B41F080E090E0892BE5
:1007000021F00E940000811113C080E090E0892B4D
:10071000A1F080E090E0892B81F00E94000081111F
:100720000AC008950E940000D8CF0E940000E1CFC7
:100730000E940000EACF0C940000089564E670E087
:100740000E9405076731710519F06F5F7F4F02C086
:1007500060E070E044E6469F9001479F300D112411
:10076000820F931F0895FC0164E670E00E94050764
:100770009C01CB9721F4CF01CB970C949E0344E6C8
:10078000469FC001479F900D11242F5F3F4F820F5E
:10079000931F08950F931F93CF93DF93C7E0D0E08B
:1007A000082F10E0B8010C2E02C0759567950A94C9
:1007B000E2F76170772788E00E94240261E087E019
:1007C0000E94240260E087E00E942402219750F7F3
:1007D000DF91CF911F910F910895CF93DF93C82F91
:1007E000D62F60E084E00E942402ED2FF0E0E65F67
:1007F000FD4F80810E94CA03EC2FF0E0EA5FFD4FBD
:1008000080810E94CA0361E084E0DF91CF910C9463
:1008100024020F931F93CF93DF938C0168EE73E054
:100820000E94050780E00E94ED03C80164E670E0C5
:100830000E940507CB01CAE0D0E0BE010E94050777
:10084000682F81E00E94ED03C801BE010E940507E8
:10085000182FCB01BE010E940507682F82E00E947D
:10086000ED03612F83E0DF91CF911F910F910C94E5
:10087000ED030E9435071F920F920FB60F921124BD
:100880002F933F938F939F93AF93BF938091D20207
:100890009091D302A091D402B091D5023091D102AF
:1008A00023E0230F2D3720F40196A11DB11D05C0B3
:1008B00026E8230F0296A11DB11D2093D10280933B
:1008C000D2029093D302A093D402B093D502809128
:1008D000CD029091CE02A091CF02B091D0020196AC
:1008E000A11DB11D8093CD029093CE02A093CF02A3
:1008F000B093D002BF91AF919F918F913F912F9173
:100900000F900FBE0F901F9018951F920F920FB669
:100910000F9211240BB60F922F933F934F935F9337
:100920006F937F938F939F93AF93BF93EF93FF93B7
:1009300086E292E00E94DB02FF91EF91BF91AF91BE
:100940009F918F917F916F915F914F913F912F91E7
:100950000F900BBE0F900FBE0F901F9018951F9217
:100960000F920FB60F9211240BB60F922F938F9305
:100970009F93EF93FF93E0913602F09137028081CD
:10098000E0913C02F0913D0282FD12C09081809185
:100990003F028F5F8F7320914002821751F0E091E8
:1009A0003F02F0E0EA5DFD4F958F80933F0201C06A
:1009B0008081FF91EF919F918F912F910F900BBEAE
:1009C0000F900FBE0F901F901895789484B5826099
:1009D00084BD84B5816084BD85B5826085BD85B5E3
:1009E000816085BD80916E00816080936E00109261
:1009F00081008091810082608093810080918100DC
:100A0000816080938100809180008160809380006C
:100A10008091B10084608093B1008091B0008160CA
:100A20008093B000809191008260809391008091CA
:100A3000910081608093910080919000816080930B
:100A400090008091A10082608093A1008091A1001C
:100A500081608093A1008091A00081608093A000BC
:100A60008091210182608093210180912101816028
:100A700080932101809120018160809320018091E9
:100A80007A00846080937A0080917A0082608093FB
:100A90007A0080917A00816080937A0080917A0058
:100AA000806880937A001092C10062E087E30E9420
:100AB000540262E088E30E94540262E089E30E94EB
:100AC000540261E08AE00E94540261E083E00E94E7
:100AD000540261E083E00E94240261E084E00E940D
:100AE000540261E087E00E94540261E088E00E94C5
:100AF0005402E0913602F091370282E08083E09167
:100B00003202F09133021082E0913402F09135020A
:100B10008FEC808310923E02E0913A02F0913B020A
:100B200086E08083E0913802F09139028081806113
:100B30008083E0913802F09139028081886080835F
:100B4000E0913802F0913902808180688083E091E1
:100B50003802F091390280818F7D808361E08AE0E4
:100B60000E94240261E08BE00E94240261E08CE09C
:100B70000E94240261E08DE00E94240280EB94E058
:100B80000E94090401E083E0C82ED12CEE24E394F6
:100B9000F12C22E0A22EB12C8FB7F8944090D20213
:100BA0005090D3026090D4027090D5028FBF87E33B
:100BB0000E94FB01C1E0892B09F0C0E088E30E949C
:100BC000FB0111E0892B09F010E089E30E94FB0191
:100BD000D1E0892B11F0D0E006C0111104C0C11181
:100BE00002C00093CC028091CC02882321F0D11165
:100BF00002C01092CC028091CB02181709F446C0B3
:100C00001093CB028091CC02811110C011111AC037
:100C1000CC2309F4CAC080910402909105020E947D
:100C20009E03909305028093040230C011110AC004
:100C300080910202909103020E94B30390930302F9
:100C400080930202D11122C0C11120C011111EC017
:100C50008091C9029091CA02009731F4F092CA02C1
:100C6000E092C90260E008C08130910549F4109219
:100C7000CA021092C90261E08AE00E94240206C002
:100C8000029721F4D092CA02C092C9028091C80290
:100C90001091CC02D81791F0D093C80211110EC058
:100CA000D1110CC0CC2351F0809104029091050227
:100CB0000E94B30390930502809304028091C702BF
:100CC000C81781F0C093C702112361F0C1110AC097
:100CD00080910202909103020E949E03909303026E
:100CE00080930202662477248091C3029091C4020B
:100CF000A091C502B091C602A3019201281B390B35
:100D00004A0B5B0BDA01C90181369A4EA105B10588
:100D100090F080910402909105020E94B303909399
:100D20000502809304024092C3025092C402609272
:100D3000C5027092C60240910402509105022091B2
:100D4000020230910302111105C050930102409339
:100D5000000204C030930102209300028091C90276
:100D60009091CA024217530739F4019759F4B0928F
:100D7000CA02A092C90206C0039721F4F092CA02E7
:100D8000E092C9028091C9029091CA02029721F4AF
:100D900060E08BE00E9424028091000290910102A9
:100DA0000E9409040E946503F7CED1116FCF50CF86
:100DB000E6E2F2E01382128288EE93E0A0E0B0E077
:100DC00084839583A683B78388E192E091838083AF
:100DD00085EC90E09587848784EC90E09787868700
:100DE00080EC90E0918B808B81EC90E0938B828BF8
:100DF00082EC90E0958B848B86EC90E0978B868BD1
:100E0000118E128E138E148E089597FB072E16F4F2
:100E1000009407D077FD09D00E94210707FC05D078
:100E20003EF4909581959F4F0895709561957F4F01
:100E30000895EE0FFF1F881F8BBF0790F691E02DDE
:100E40001994AA1BBB1B51E107C0AA1FBB1FA61701
:100E5000B70710F0A61BB70B881F991F5A95A9F763
:100E600080959095BC01CD01089581E090E0F894C3
:080E70000C943A07F894FFCF3F
:100E7800B0048704B004F1F2F4F8C0F9A4B0999270
:100E880082F8809000000000FC027A01940243037B
:060E9800C502A302B7022F
:00000001FF
